{
  "_format": "hh-sol-artifact-1",
  "contractName": "Lotto",
  "sourceName": "contracts/lottery.sol",
  "abi": [
    {
      "inputs": [
        {
          "internalType": "uint256",
          "name": "subscriptionId",
          "type": "uint256"
        },
        {
          "internalType": "address",
          "name": "vrfCoordinator",
          "type": "address"
        }
      ],
      "stateMutability": "nonpayable",
      "type": "constructor"
    },
    {
      "inputs": [
        {
          "internalType": "address",
          "name": "have",
          "type": "address"
        },
        {
          "internalType": "address",
          "name": "want",
          "type": "address"
        }
      ],
      "name": "OnlyCoordinatorCanFulfill",
      "type": "error"
    },
    {
      "inputs": [
        {
          "internalType": "address",
          "name": "have",
          "type": "address"
        },
        {
          "internalType": "address",
          "name": "owner",
          "type": "address"
        },
        {
          "internalType": "address",
          "name": "coordinator",
          "type": "address"
        }
      ],
      "name": "OnlyOwnerOrCoordinator",
      "type": "error"
    },
    {
      "inputs": [],
      "name": "ZeroAddress",
      "type": "error"
    },
    {
      "anonymous": false,
      "inputs": [
        {
          "indexed": false,
          "internalType": "address",
          "name": "vrfCoordinator",
          "type": "address"
        }
      ],
      "name": "CoordinatorSet",
      "type": "event"
    },
    {
      "anonymous": false,
      "inputs": [
        {
          "indexed": true,
          "internalType": "address",
          "name": "from",
          "type": "address"
        },
        {
          "indexed": true,
          "internalType": "address",
          "name": "to",
          "type": "address"
        }
      ],
      "name": "OwnershipTransferRequested",
      "type": "event"
    },
    {
      "anonymous": false,
      "inputs": [
        {
          "indexed": true,
          "internalType": "address",
          "name": "from",
          "type": "address"
        },
        {
          "indexed": true,
          "internalType": "address",
          "name": "to",
          "type": "address"
        }
      ],
      "name": "OwnershipTransferred",
      "type": "event"
    },
    {
      "inputs": [],
      "name": "TICKET_PRICE",
      "outputs": [
        {
          "internalType": "uint256",
          "name": "",
          "type": "uint256"
        }
      ],
      "stateMutability": "view",
      "type": "function"
    },
    {
      "inputs": [],
      "name": "acceptOwnership",
      "outputs": [],
      "stateMutability": "nonpayable",
      "type": "function"
    },
    {
      "inputs": [
        {
          "internalType": "uint8[7]",
          "name": "_numbers",
          "type": "uint8[7]"
        }
      ],
      "name": "buyTicket",
      "outputs": [],
      "stateMutability": "payable",
      "type": "function"
    },
    {
      "inputs": [
        {
          "internalType": "bytes",
          "name": "",
          "type": "bytes"
        }
      ],
      "name": "checkUpkeep",
      "outputs": [
        {
          "internalType": "bool",
          "name": "upkeepNeeded",
          "type": "bool"
        },
        {
          "internalType": "bytes",
          "name": "",
          "type": "bytes"
        }
      ],
      "stateMutability": "view",
      "type": "function"
    },
    {
      "inputs": [],
      "name": "interval",
      "outputs": [
        {
          "internalType": "uint256",
          "name": "",
          "type": "uint256"
        }
      ],
      "stateMutability": "view",
      "type": "function"
    },
    {
      "inputs": [],
      "name": "lastDrawTimestamp",
      "outputs": [
        {
          "internalType": "uint256",
          "name": "",
          "type": "uint256"
        }
      ],
      "stateMutability": "view",
      "type": "function"
    },
    {
      "inputs": [
        {
          "internalType": "uint256",
          "name": "",
          "type": "uint256"
        }
      ],
      "name": "lastWinningNumbers",
      "outputs": [
        {
          "internalType": "uint8",
          "name": "",
          "type": "uint8"
        }
      ],
      "stateMutability": "view",
      "type": "function"
    },
    {
      "inputs": [],
      "name": "owner",
      "outputs": [
        {
          "internalType": "address",
          "name": "",
          "type": "address"
        }
      ],
      "stateMutability": "view",
      "type": "function"
    },
    {
      "inputs": [
        {
          "internalType": "bytes",
          "name": "",
          "type": "bytes"
        }
      ],
      "name": "performUpkeep",
      "outputs": [],
      "stateMutability": "nonpayable",
      "type": "function"
    },
    {
      "inputs": [],
      "name": "prizePool",
      "outputs": [
        {
          "internalType": "uint256",
          "name": "",
          "type": "uint256"
        }
      ],
      "stateMutability": "view",
      "type": "function"
    },
    {
      "inputs": [
        {
          "internalType": "uint256",
          "name": "requestId",
          "type": "uint256"
        },
        {
          "internalType": "uint256[]",
          "name": "randomWords",
          "type": "uint256[]"
        }
      ],
      "name": "rawFulfillRandomWords",
      "outputs": [],
      "stateMutability": "nonpayable",
      "type": "function"
    },
    {
      "inputs": [],
      "name": "s_owner",
      "outputs": [
        {
          "internalType": "address",
          "name": "",
          "type": "address"
        }
      ],
      "stateMutability": "view",
      "type": "function"
    },
    {
      "inputs": [],
      "name": "s_vrfCoordinator",
      "outputs": [
        {
          "internalType": "contract IVRFCoordinatorV2Plus",
          "name": "",
          "type": "address"
        }
      ],
      "stateMutability": "view",
      "type": "function"
    },
    {
      "inputs": [
        {
          "internalType": "address",
          "name": "_vrfCoordinator",
          "type": "address"
        }
      ],
      "name": "setCoordinator",
      "outputs": [],
      "stateMutability": "nonpayable",
      "type": "function"
    },
    {
      "inputs": [
        {
          "internalType": "uint256",
          "name": "",
          "type": "uint256"
        }
      ],
      "name": "tickets",
      "outputs": [
        {
          "internalType": "address",
          "name": "player",
          "type": "address"
        }
      ],
      "stateMutability": "view",
      "type": "function"
    },
    {
      "inputs": [
        {
          "internalType": "address",
          "name": "to",
          "type": "address"
        }
      ],
      "name": "transferOwnership",
      "outputs": [],
      "stateMutability": "nonpayable",
      "type": "function"
    },
    {
      "stateMutability": "payable",
      "type": "receive"
    }
  ],
  "bytecode": "0x6080604052620151806004557f73610c3b5423577eb82b28431a05a56c464ea5981318c44d1b5c0ca7859a0f416009557f787d74caea10b2b357790d5b5247c2f63d1d91572a9846f780606e4d953677ae60001b600a55622625a0600b60006101000a81548163ffffffff021916908363ffffffff1602179055506003600b60046101000a81548161ffff021916908361ffff1602179055503480156100a457600080fd5b5060405161265638038061265683398181016040528101906100c69190610483565b80338060008073ffffffffffffffffffffffffffffffffffffffff168273ffffffffffffffffffffffffffffffffffffffff1603610139576040517f08c379a000000000000000000000000000000000000000000000000000000000815260040161013090610520565b60405180910390fd5b816000806101000a81548173ffffffffffffffffffffffffffffffffffffffff021916908373ffffffffffffffffffffffffffffffffffffffff160217905550600073ffffffffffffffffffffffffffffffffffffffff168173ffffffffffffffffffffffffffffffffffffffff16146101bd576101bc816102be60201b60201c565b5b505050600073ffffffffffffffffffffffffffffffffffffffff168173ffffffffffffffffffffffffffffffffffffffff1603610226576040517fd92e233d00000000000000000000000000000000000000000000000000000000815260040160405180910390fd5b80600260006101000a81548173ffffffffffffffffffffffffffffffffffffffff021916908373ffffffffffffffffffffffffffffffffffffffff16021790555050816009819055504260038190555033600760006101000a81548173ffffffffffffffffffffffffffffffffffffffff021916908373ffffffffffffffffffffffffffffffffffffffff16021790555050506105ac565b3373ffffffffffffffffffffffffffffffffffffffff168173ffffffffffffffffffffffffffffffffffffffff160361032c576040517f08c379a00000000000000000000000000000000000000000000000000000000081526004016103239061058c565b60405180910390fd5b80600160006101000a81548173ffffffffffffffffffffffffffffffffffffffff021916908373ffffffffffffffffffffffffffffffffffffffff1602179055508073ffffffffffffffffffffffffffffffffffffffff1660008054906101000a900473ffffffffffffffffffffffffffffffffffffffff1673ffffffffffffffffffffffffffffffffffffffff167fed8889f560326eb138920d842192f0eb3dd22b4f139c87a2c57538e05bae127860405160405180910390a350565b600080fd5b6000819050919050565b610402816103ef565b811461040d57600080fd5b50565b60008151905061041f816103f9565b92915050565b600073ffffffffffffffffffffffffffffffffffffffff82169050919050565b600061045082610425565b9050919050565b61046081610445565b811461046b57600080fd5b50565b60008151905061047d81610457565b92915050565b6000806040838503121561049a576104996103ea565b5b60006104a885828601610410565b92505060206104b98582860161046e565b9150509250929050565b600082825260208201905092915050565b7f43616e6e6f7420736574206f776e657220746f207a65726f0000000000000000600082015250565b600061050a6018836104c3565b9150610515826104d4565b602082019050919050565b60006020820190508181036000830152610539816104fd565b9050919050565b7f43616e6e6f74207472616e7366657220746f2073656c66000000000000000000600082015250565b60006105766017836104c3565b915061058182610540565b602082019050919050565b600060208201905081810360008301526105a581610569565b9050919050565b61209b806105bb6000396000f3fe6080604052600436106100f75760003560e01c806379ba50971161008a578063947a36fb11610059578063947a36fb146103155780639eccacf614610340578063e39782401461036b578063f2fde38b14610396576100fe565b806379ba50971461027f5780638c21460b146102965780638da5cb5b146102c15780638ea98117146102ec576100fe565b806350b44712116100c657806350b447121461019c5780636e04ff0d146101d9578063719ce73e146102175780637624bb8714610242576100fe565b80631a95f15f146101035780631fe543e31461012e57806339e7397b146101575780634585e33b14610173576100fe565b366100fe57005b600080fd5b34801561010f57600080fd5b506101186103bf565b60405161012591906113cd565b60405180910390f35b34801561013a57600080fd5b506101556004803603810190610150919061148d565b6103ca565b005b610171600480360381019061016c9190611663565b610490565b005b34801561017f57600080fd5b5061019a600480360381019061019591906116e6565b610757565b005b3480156101a857600080fd5b506101c360048036038101906101be9190611733565b6108a6565b6040516101d091906117a1565b60405180910390f35b3480156101e557600080fd5b5061020060048036038101906101fb91906116e6565b6108f4565b60405161020e929190611856565b60405180910390f35b34801561022357600080fd5b5061022c610924565b60405161023991906113cd565b60405180910390f35b34801561024e57600080fd5b5061026960048036038101906102649190611733565b61092a565b6040516102769190611895565b60405180910390f35b34801561028b57600080fd5b50610294610954565b005b3480156102a257600080fd5b506102ab610ae9565b6040516102b891906113cd565b60405180910390f35b3480156102cd57600080fd5b506102d6610aef565b6040516102e391906117a1565b60405180910390f35b3480156102f857600080fd5b50610313600480360381019061030e91906118dc565b610b18565b005b34801561032157600080fd5b5061032a610cf9565b60405161033791906113cd565b60405180910390f35b34801561034c57600080fd5b50610355610cff565b6040516103629190611968565b60405180910390f35b34801561037757600080fd5b50610380610d25565b60405161038d91906117a1565b60405180910390f35b3480156103a257600080fd5b506103bd60048036038101906103b891906118dc565b610d4b565b005b662386f26fc1000081565b600260009054906101000a900473ffffffffffffffffffffffffffffffffffffffff1673ffffffffffffffffffffffffffffffffffffffff163373ffffffffffffffffffffffffffffffffffffffff16146104805733600260009054906101000a900473ffffffffffffffffffffffffffffffffffffffff166040517f1cf993f4000000000000000000000000000000000000000000000000000000008152600401610477929190611983565b60405180910390fd5b61048b838383610d5f565b505050565b662386f26fc1000034146104d9576040517f08c379a00000000000000000000000000000000000000000000000000000000081526004016104d090611a09565b60405180910390fd5b60005b60078110156105775760018282600781106104fa576104f9611a29565b5b602002015160ff161015801561052b575060318282600781106105205761051f611a29565b5b602002015160ff1611155b61056a576040517f08c379a000000000000000000000000000000000000000000000000000000000815260040161056190611aa4565b60405180910390fd5b80806001019150506104dc565b50600660405180604001604052803373ffffffffffffffffffffffffffffffffffffffff16815260200183815250908060018154018082558091505060019003906000526020600020906002020160009091909190915060008201518160000160006101000a81548173ffffffffffffffffffffffffffffffffffffffff021916908373ffffffffffffffffffffffffffffffffffffffff16021790555060208201518160010190600761062c929190611284565b50505060006064600a662386f26fc100006106479190611af3565b6106519190611b64565b9050600081662386f26fc100006106689190611b95565b9050806008600082825461067c9190611bc9565b925050819055506000600760009054906101000a900473ffffffffffffffffffffffffffffffffffffffff1673ffffffffffffffffffffffffffffffffffffffff16836040516106cb90611c2e565b60006040518083038185875af1925050503d8060008114610708576040519150601f19603f3d011682016040523d82523d6000602084013e61070d565b606091505b5050905080610751576040517f08c379a000000000000000000000000000000000000000000000000000000000815260040161074890611c8f565b60405180910390fd5b50505050565b600454600354426107689190611b95565b11801561077a57506000600680549050115b156108a25742600381905550600260009054906101000a900473ffffffffffffffffffffffffffffffffffffffff1673ffffffffffffffffffffffffffffffffffffffff16639b1c385e6040518060c00160405280600a5481526020016009548152602001600b60049054906101000a900461ffff1661ffff168152602001600b60009054906101000a900463ffffffff1663ffffffff168152602001600763ffffffff16815260200161083e604051806020016040528060001515815250610dfa565b8152506040518263ffffffff1660e01b815260040161085d9190611de6565b6020604051808303816000875af115801561087c573d6000803e3d6000fd5b505050506040513d601f19601f820116820180604052508101906108a09190611e1d565b505b5050565b600681815481106108b657600080fd5b90600052602060002090600202016000915090508060000160009054906101000a900473ffffffffffffffffffffffffffffffffffffffff16905081565b60006060600454600354426109099190611b95565b11801561091b57506000600680549050115b91509250929050565b60085481565b6005816007811061093a57600080fd5b60209182820401919006915054906101000a900460ff1681565b600160009054906101000a900473ffffffffffffffffffffffffffffffffffffffff1673ffffffffffffffffffffffffffffffffffffffff163373ffffffffffffffffffffffffffffffffffffffff16146109e4576040517f08c379a00000000000000000000000000000000000000000000000000000000081526004016109db90611e96565b60405180910390fd5b60008060009054906101000a900473ffffffffffffffffffffffffffffffffffffffff169050336000806101000a81548173ffffffffffffffffffffffffffffffffffffffff021916908373ffffffffffffffffffffffffffffffffffffffff1602179055506000600160006101000a81548173ffffffffffffffffffffffffffffffffffffffff021916908373ffffffffffffffffffffffffffffffffffffffff1602179055503373ffffffffffffffffffffffffffffffffffffffff168173ffffffffffffffffffffffffffffffffffffffff167f8be0079c531659141344cd1fd0a4f28419497f9722a3daafe3b4186f6b6457e060405160405180910390a350565b60035481565b60008060009054906101000a900473ffffffffffffffffffffffffffffffffffffffff16905090565b610b20610aef565b73ffffffffffffffffffffffffffffffffffffffff163373ffffffffffffffffffffffffffffffffffffffff1614158015610ba95750600260009054906101000a900473ffffffffffffffffffffffffffffffffffffffff1673ffffffffffffffffffffffffffffffffffffffff163373ffffffffffffffffffffffffffffffffffffffff1614155b15610c185733610bb7610aef565b600260009054906101000a900473ffffffffffffffffffffffffffffffffffffffff166040517f061db9c1000000000000000000000000000000000000000000000000000000008152600401610c0f93929190611eb6565b60405180910390fd5b600073ffffffffffffffffffffffffffffffffffffffff168173ffffffffffffffffffffffffffffffffffffffff1603610c7e576040517fd92e233d00000000000000000000000000000000000000000000000000000000815260040160405180910390fd5b80600260006101000a81548173ffffffffffffffffffffffffffffffffffffffff021916908373ffffffffffffffffffffffffffffffffffffffff1602179055507fd1a6a14209a385a964d036e404cb5cfb71f4000cdb03c9366292430787261be681604051610cee91906117a1565b60405180910390a150565b60045481565b600260009054906101000a900473ffffffffffffffffffffffffffffffffffffffff1681565b600760009054906101000a900473ffffffffffffffffffffffffffffffffffffffff1681565b610d53610e92565b610d5c81610f22565b50565b60005b6007811015610dde5760016031848484818110610d8257610d81611a29565b5b90506020020135610d939190611eed565b610d9d9190611bc9565b60058260078110610db157610db0611a29565b5b602091828204019190066101000a81548160ff021916908360ff1602179055508080600101915050610d62565b50610de761104e565b60066000610df5919061131e565b505050565b60607f92fd13387c7fe7befbc38d303d6468778fb9731bc4583f17d92989c6fcfdeaaa82604051602401610e2e9190611f49565b604051602081830303815290604052907bffffffffffffffffffffffffffffffffffffffffffffffffffffffff19166020820180517bffffffffffffffffffffffffffffffffffffffffffffffffffffffff83818316178352505050509050919050565b60008054906101000a900473ffffffffffffffffffffffffffffffffffffffff1673ffffffffffffffffffffffffffffffffffffffff163373ffffffffffffffffffffffffffffffffffffffff1614610f20576040517f08c379a0000000000000000000000000000000000000000000000000000000008152600401610f1790611fb0565b60405180910390fd5b565b3373ffffffffffffffffffffffffffffffffffffffff168173ffffffffffffffffffffffffffffffffffffffff1603610f90576040517f08c379a0000000000000000000000000000000000000000000000000000000008152600401610f879061201c565b60405180910390fd5b80600160006101000a81548173ffffffffffffffffffffffffffffffffffffffff021916908373ffffffffffffffffffffffffffffffffffffffff1602179055508073ffffffffffffffffffffffffffffffffffffffff1660008054906101000a900473ffffffffffffffffffffffffffffffffffffffff1673ffffffffffffffffffffffffffffffffffffffff167fed8889f560326eb138920d842192f0eb3dd22b4f139c87a2c57538e05bae127860405160405180910390a350565b60006008540315611282576000805b600680549050811015611266576000805b600781101561111e576005816007811061108b5761108a611a29565b5b602091828204019190069054906101000a900460ff1660ff16600684815481106110b8576110b7611a29565b5b906000526020600020906002020160010182600781106110db576110da611a29565b5b602091828204019190069054906101000a900460ff1660ff160361110c5781806111049061203c565b925050611111565b61111e565b808060010191505061106e565b50600060028260ff16036111355760059050611194565b60038260ff160361114957600a9050611193565b60048260ff160361115d57600f9050611192565b60058260ff161480611172575060068260ff16145b156111805760149050611191565b60078260ff160361119057601e90505b5b5b5b5b60008111156112575760006064826008546111af9190611af3565b6111b99190611b64565b905080856111c79190611bc9565b9450600684815481106111dd576111dc611a29565b5b906000526020600020906002020160000160009054906101000a900473ffffffffffffffffffffffffffffffffffffffff1673ffffffffffffffffffffffffffffffffffffffff166108fc829081150290604051600060405180830381858888f19350505050158015611254573d6000803e3d6000fd5b50505b5050808060010191505061105d565b5080600860008282546112799190611b95565b92505081905550505b565b826007601f0160209004810192821561130d5791602002820160005b838211156112de57835183826101000a81548160ff021916908360ff16021790555092602001926001016020816000010492830192600103026112a0565b801561130b5782816101000a81549060ff02191690556001016020816000010492830192600103026112de565b505b50905061131a9190611342565b5090565b508054600082556002029060005260206000209081019061133f919061135f565b50565b5b8082111561135b576000816000905550600101611343565b5090565b5b808211156113a957600080820160006101000a81549073ffffffffffffffffffffffffffffffffffffffff02191690556001820160006113a091906113ad565b50600201611360565b5090565b5060009055565b6000819050919050565b6113c7816113b4565b82525050565b60006020820190506113e260008301846113be565b92915050565b6000604051905090565b600080fd5b600080fd5b611405816113b4565b811461141057600080fd5b50565b600081359050611422816113fc565b92915050565b600080fd5b600080fd5b600080fd5b60008083601f84011261144d5761144c611428565b5b8235905067ffffffffffffffff81111561146a5761146961142d565b5b60208301915083602082028301111561148657611485611432565b5b9250929050565b6000806000604084860312156114a6576114a56113f2565b5b60006114b486828701611413565b935050602084013567ffffffffffffffff8111156114d5576114d46113f7565b5b6114e186828701611437565b92509250509250925092565b6000601f19601f8301169050919050565b7f4e487b7100000000000000000000000000000000000000000000000000000000600052604160045260246000fd5b611536826114ed565b810181811067ffffffffffffffff82111715611555576115546114fe565b5b80604052505050565b60006115686113e8565b9050611574828261152d565b919050565b600067ffffffffffffffff821115611594576115936114fe565b5b602082029050919050565b600060ff82169050919050565b6115b58161159f565b81146115c057600080fd5b50565b6000813590506115d2816115ac565b92915050565b60006115eb6115e684611579565b61155e565b9050806020840283018581111561160557611604611432565b5b835b8181101561162e578061161a88826115c3565b845260208401935050602081019050611607565b5050509392505050565b600082601f83011261164d5761164c611428565b5b600761165a8482856115d8565b91505092915050565b600060e08284031215611679576116786113f2565b5b600061168784828501611638565b91505092915050565b60008083601f8401126116a6576116a5611428565b5b8235905067ffffffffffffffff8111156116c3576116c261142d565b5b6020830191508360018202830111156116df576116de611432565b5b9250929050565b600080602083850312156116fd576116fc6113f2565b5b600083013567ffffffffffffffff81111561171b5761171a6113f7565b5b61172785828601611690565b92509250509250929050565b600060208284031215611749576117486113f2565b5b600061175784828501611413565b91505092915050565b600073ffffffffffffffffffffffffffffffffffffffff82169050919050565b600061178b82611760565b9050919050565b61179b81611780565b82525050565b60006020820190506117b66000830184611792565b92915050565b60008115159050919050565b6117d1816117bc565b82525050565b600081519050919050565b600082825260208201905092915050565b60005b838110156118115780820151818401526020810190506117f6565b60008484015250505050565b6000611828826117d7565b61183281856117e2565b93506118428185602086016117f3565b61184b816114ed565b840191505092915050565b600060408201905061186b60008301856117c8565b818103602083015261187d818461181d565b90509392505050565b61188f8161159f565b82525050565b60006020820190506118aa6000830184611886565b92915050565b6118b981611780565b81146118c457600080fd5b50565b6000813590506118d6816118b0565b92915050565b6000602082840312156118f2576118f16113f2565b5b6000611900848285016118c7565b91505092915050565b6000819050919050565b600061192e61192961192484611760565b611909565b611760565b9050919050565b600061194082611913565b9050919050565b600061195282611935565b9050919050565b61196281611947565b82525050565b600060208201905061197d6000830184611959565b92915050565b60006040820190506119986000830185611792565b6119a56020830184611792565b9392505050565b600082825260208201905092915050565b7f496e636f72726563742045544820616d6f756e74000000000000000000000000600082015250565b60006119f36014836119ac565b91506119fe826119bd565b602082019050919050565b60006020820190508181036000830152611a22816119e6565b9050919050565b7f4e487b7100000000000000000000000000000000000000000000000000000000600052603260045260246000fd5b7f4e756d62657273206d75737420626520312d3439000000000000000000000000600082015250565b6000611a8e6014836119ac565b9150611a9982611a58565b602082019050919050565b60006020820190508181036000830152611abd81611a81565b9050919050565b7f4e487b7100000000000000000000000000000000000000000000000000000000600052601160045260246000fd5b6000611afe826113b4565b9150611b09836113b4565b9250828202611b17816113b4565b91508282048414831517611b2e57611b2d611ac4565b5b5092915050565b7f4e487b7100000000000000000000000000000000000000000000000000000000600052601260045260246000fd5b6000611b6f826113b4565b9150611b7a836113b4565b925082611b8a57611b89611b35565b5b828204905092915050565b6000611ba0826113b4565b9150611bab836113b4565b9250828203905081811115611bc357611bc2611ac4565b5b92915050565b6000611bd4826113b4565b9150611bdf836113b4565b9250828201905080821115611bf757611bf6611ac4565b5b92915050565b600081905092915050565b50565b6000611c18600083611bfd565b9150611c2382611c08565b600082019050919050565b6000611c3982611c0b565b9150819050919050565b7f4f776e657220666565207472616e73666572206661696c656400000000000000600082015250565b6000611c796019836119ac565b9150611c8482611c43565b602082019050919050565b60006020820190508181036000830152611ca881611c6c565b9050919050565b6000819050919050565b611cc281611caf565b82525050565b611cd1816113b4565b82525050565b600061ffff82169050919050565b611cee81611cd7565b82525050565b600063ffffffff82169050919050565b611d0d81611cf4565b82525050565b600082825260208201905092915050565b6000611d2f826117d7565b611d398185611d13565b9350611d498185602086016117f3565b611d52816114ed565b840191505092915050565b600060c083016000830151611d756000860182611cb9565b506020830151611d886020860182611cc8565b506040830151611d9b6040860182611ce5565b506060830151611dae6060860182611d04565b506080830151611dc16080860182611d04565b5060a083015184820360a0860152611dd98282611d24565b9150508091505092915050565b60006020820190508181036000830152611e008184611d5d565b905092915050565b600081519050611e17816113fc565b92915050565b600060208284031215611e3357611e326113f2565b5b6000611e4184828501611e08565b91505092915050565b7f4d7573742062652070726f706f736564206f776e657200000000000000000000600082015250565b6000611e806016836119ac565b9150611e8b82611e4a565b602082019050919050565b60006020820190508181036000830152611eaf81611e73565b9050919050565b6000606082019050611ecb6000830186611792565b611ed86020830185611792565b611ee56040830184611792565b949350505050565b6000611ef8826113b4565b9150611f03836113b4565b925082611f1357611f12611b35565b5b828206905092915050565b611f27816117bc565b82525050565b602082016000820151611f436000850182611f1e565b50505050565b6000602082019050611f5e6000830184611f2d565b92915050565b7f4f6e6c792063616c6c61626c65206279206f776e657200000000000000000000600082015250565b6000611f9a6016836119ac565b9150611fa582611f64565b602082019050919050565b60006020820190508181036000830152611fc981611f8d565b9050919050565b7f43616e6e6f74207472616e7366657220746f2073656c66000000000000000000600082015250565b60006120066017836119ac565b915061201182611fd0565b602082019050919050565b6000602082019050818103600083015261203581611ff9565b9050919050565b60006120478261159f565b915060ff820361205a57612059611ac4565b5b60018201905091905056fea2646970667358221220c3eba1c6cc4570ce0126e43ef1967b47e4e753fc53ac7caeddba421f00045f0764736f6c634300081c0033",
  "linkReferences": {},
  "deployedLinkReferences": {}
}